:020000040000FA
:1000000028080020F5000000070100000901000099
:1000100000000000000000000000000000000000E0
:100020000000000000000000000000000B010000C4
:1000300000000000000000000D0100000F010000A2
:100040001101000011010000110100001101000068
:100050001101000000000000690100001101000012
:100060001101000011010000110100001101000048
:100070001101000011010000110100001101000038
:100080001101000011010000110100001101000028
:100090001101000011010000110100001101000018
:1000A000110100001101000000000000000000002C
:1000B0000000000000000000000000000000000040
:1000C0000348854600F03EF8004800473D06000022
:1000D00028080020401E00BF00BF00BF00BF00BFB7
:1000E00000BF00BF00BF00BF00BF00BF00BFF1D115
:1000F00070470000074802680F210A430260064863
:10010000804706480047FEE7FEE7FEE7FEE7FEE71A
:10011000FEE700002405004061020000C10000006D
:10012000D2B201E00270401C491EFBD2704700228F
:10013000F6E710B513460A4604461946FFF7F0FFE6
:10014000204610BD064C0125064E05E02046E3681A
:1001500007C82B4398471034B442F7D3FFF7B4FFD6
:100160001C0800002C080000FEB51A480669002093
:100170001949C863002527E0142068431749096816
:1001800044180120A8401649096808421AD0E068BE
:10019000C04370402168084007463946204600F0B9
:1001A000FFFAA068B04338400090606830403840A3
:1001B000019000990198084303D0226900990198A1
:1001C000904700BF681CC5B2064800788542D3DB63
:1001D000FEBD00000005005040610040040000200A
:1001E000080000200D00002010B5002819DA1A4A76
:1001F00003071B0F083B9B089B00D2588307DC0EAC
:10020000FF23A3409A438B071B0E8407E40EA340F1
:100210001A43114B0407240F083CA408A4001A51E8
:1002200018E00E4A03231B02D21883089B00D25801
:100230008307DC0EFF23A3409A438B071B0E840722
:10024000E40EA3401A43054B032424021B1984081F
:10025000A4001A5110BD00001CED00E000E100E018
:1002600010B500F0B9F9002805D0074807494860E3
:10027000C8130749886100F095F9002802D00120D1
:100280000449886010BD0000DFFF07C00005004082
:10029000006C00400006004002E008C8121F08C1C0
:1002A000002AFAD170477047002001E001C1121FF7
:1002B000002AFBD17047000000BFBFF34F8F0448F6
:1002C0000449C860BFF34F8F00BF00BFFEE70000C6
:1002D0000400FA0500ED00E070B505460C46002C60
:1002E00001D1072070BD20468107890F01D101216E
:1002F00000E00021002901D10720F3E71348046042
:10030000134805700020134908701349086010480D
:1003100000781422504301460C480068FFF707FF9D
:100320000020C0430D4988600620012181400C4A0D
:10033000116000BF0121FFF757FF06200121814016
:10034000084A116000BF0020CCE700000400002034
:100350000C0000200D000020080000200063004079
:1003600080E200E000E100E0F0B5024636480068B7
:10037000002801D10820F0BD34480078824201DB1A
:100380000720F8E70020324BD8633248046932482E
:100390000068002802D15806304B58600120904078
:1003A0002D4B1B6818432C4B18600023142050431E
:1003B000254D2D684019C360002140E001238B408A
:1003C000184614235343204D2D68EB58034235D073
:1003D0002546054202D003231B040EE001235B04E3
:1003E00014255543184E3668AD19ED68054314269B
:1003F0005643154F3F68F619F56005252D0707266A
:100400003602AD198E00AD5903263604B5430526D4
:10041000360707273F02F6198F00F55105252D07EE
:1004200007263602AD198E00AD591D430526360745
:1004300007273F02F6198F00F55100BF491C2029FC
:10044000BCD3002097E70000040000200D0000202E
:10045000406100400005005008000020006300409B
:10046000F8B504460D4616461F4620480068002889
:1004700001D10820F8BD002F01D10720FAE71C4860
:1004800000781C490978884201DB0420F2E72846FD
:1004900030431749097814225143144A12685050C6
:1004A00013480078142148431049096840184560F2
:1004B0000F480078142148430C49096840188660A9
:1004C0000B4800781421484308490968401807611F
:1004D00007480078207006480078401C04490870DE
:1004E000207800F009F90020C4E700000400002093
:1004F0000D0000200C000020F8B51220132108E0A8
:10050000012205231B0707273F02DB198700DA5169
:10051000401C8842F4D900BF0320012105221207A4
:1005200007231B02D2188300D15000BF03210120F2
:1005300000F098F80321022000F094F8002108460A
:1005400000F090F800BF12490120FFF7C5FE0746F2
:1005500000BF3B46002B05D000BF0EA284211846E9
:10056000FFF7AAFE00BF00BF062401250C4B2A4658
:1005700021466846FFF774FF064668460078FFF795
:10058000F3FE0646002E01D0E01FF8BD0020FCE778
:10059000100000202E2E5C6D61696E2E630000003D
:1005A000CD0600000B48008CC0B2012810D10948CC
:1005B000808C0007000F0BD10648806AF0210840AC
:1005C000402805D10348C06A084201D10120704784
:1005D0000020FCE7C00F00F01748008CC0B20128D3
:1005E00027D11548808C0007000F22D11248806A5D
:1005F000F021084205D11048C06A084201D101200B
:1006000070470D48806AF0210840102805D10A483B
:10061000C06A084201D10120F2E70748806AF02150
:100620000840302805D10448C06A084201D10120A1
:10063000E6E70020E4E70000C00F00F0FFF75CFFF2
:1006400000F08CF800BFFEE701B505E00098401E01
:1006500000900348FFF73EFD00980028F6D108BD42
:10066000E703000010B58A0005231B0707242402B6
:100670001B1984001A5110BD002906D100BF0122A8
:100680008240064BDA6000BF06E000BF01228240D4
:10069000024B9A6000BF00BF704700000005005089
:1006A000014A115400BF70470405005010B50421E1
:1006B0000220FFF7F5FF0448FFF7C6FF00210220E4
:1006C000FFF7EEFF10BD0000EE02000070B505461A
:1006D0000E4600240BE001210320FFF7CDFF02208E
:1006E000FFF7B2FF00210320FFF7C6FF641C642C54
:1006F000F1DBFFF7DBFF70BD10B50146002028E0FD
:1007000014224A43144B1B689A58012383401A420F
:100710001ED00522120707231B02D2188300D258CD
:1007200003231B049A4305231B07072424021B19D8
:1007300084001A510522120707231B02D2188300D6
:10074000D25805231B07072424021B1984001A51C1
:10075000401C2028D4D310BD0400002010B5002474
:10076000A01C01228240D1B2FFF79AFF601CC4078F
:10077000E40FFF20F530FFF767FFA01C0122824045
:10078000D1B20220FFF78CFFFF20F530FFF75CFFAE
:10079000A01C00228240D1B20220FFF781FF10BDD1
:1007A000F0B502460C46002035E00123834019468F
:1007B00023460B422ED0D5680D4205D101235B04A0
:1007C000D5680D43D56004E003231B04D5688D4331
:1007D000D56005252D0707263602AD198600AD59CF
:1007E00003263604B5430526360707273F02F619C8
:1007F0008700F55105252D0707263602AD1986001D
:10080000AD591D430526360707273F02F619870015
:10081000F55100BF401C2028C7D3F0BD2C080000B4
:100820000000002010000000980200000024F400E6
:0C083000000000000000000000000000BC
:04000005000000C136
:00000001FF
